{
  "transactions": [
    {
      "hash": "0xe31d94b7abdae16292a450d8a0b0584f870f3f6274b71219d28f07183dfdc8f2",
      "transactionType": "CALL",
      "contractName": null,
      "contractAddress": "0xe6ec42a064d2efdb19b5aabd6c40bbe4dd1c2970",
      "function": "bridgeToken((address,bytes32,bytes32,uint64),(bytes32,bytes[],bytes)[])",
      "arguments": [
        "(0xEeeeeEeeeEeEeeEeEeEeeEEEeeeeEeeeeeeeEEeE, 0x2c6b39e42a095b7c2174907d5766430ef45c1e6c62d07733e6d5f60eb4b903ab, 0x3fc9a50604fa7b85e0ca8cd36386152ab80e0e6244b5345112864e58c947d9de, 1)",
        "[]"
      ],
      "transaction": {
        "from": "0x25f7fd8f50d522b266764cd3b230edaa8cbb9f75",
        "to": "0xe6ec42a064d2efdb19b5aabd6c40bbe4dd1c2970",
        "gas": "0x2ffdd",
        "value": "0x3b9aca00",
        "input": "0x6736eb17000000000000000000000000eeeeeeeeeeeeeeeeeeeeeeeeeeeeeeeeeeeeeeee2c6b39e42a095b7c2174907d5766430ef45c1e6c62d07733e6d5f60eb4b903ab3fc9a50604fa7b85e0ca8cd36386152ab80e0e6244b5345112864e58c947d9de000000000000000000000000000000000000000000000000000000000000000100000000000000000000000000000000000000000000000000000000000000a00000000000000000000000000000000000000000000000000000000000000000",
        "nonce": "0x1f1",
        "chainId": "0x14a34"
      },
      "additionalContracts": [],
      "isFixedGasLimit": false
    }
  ],
  "receipts": [
    {
      "status": "0x1",
      "cumulativeGasUsed": "0x37a2d8",
      "logs": [
        {
          "address": "0xe6ec42a064d2efdb19b5aabd6c40bbe4dd1c2970",
          "topics": [
            "0xf1109ae3af61805fa998753209b2a90166bfc4b38ad8a6b5a268591ce18f99c0"
          ],
          "data": "0x000000000000000000000000eeeeeeeeeeeeeeeeeeeeeeeeeeeeeeeeeeeeeeee2c6b39e42a095b7c2174907d5766430ef45c1e6c62d07733e6d5f60eb4b903ab3fc9a50604fa7b85e0ca8cd36386152ab80e0e6244b5345112864e58c947d9de000000000000000000000000000000000000000000000000000000003b9aca00",
          "blockHash": "0xbf30cd299557e608ac49960a8c5b6345daeb3596bacdb692311aa7a27b721385",
          "blockNumber": "0x1c36cbf",
          "transactionHash": "0xe31d94b7abdae16292a450d8a0b0584f870f3f6274b71219d28f07183dfdc8f2",
          "transactionIndex": "0x1c",
          "logIndex": "0x58",
          "removed": false
        },
        {
          "address": "0xe6ec42a064d2efdb19b5aabd6c40bbe4dd1c2970",
          "topics": [
            "0xbaa7ef9db66a2e95a218100288cf439de5fbe1e4ed665cd1a2f01278242c9fc4",
            "0x879dff1562f3ab065c9c132e87635f91966f56447da88e4ef16458599fb213f1",
            "0x879dff1562f3ab065c9c132e87635f91966f56447da88e4ef16458599fb213f1"
          ],
          "data": "0x0000000000000000000000000000000000000000000000000000000000000020000000000000000000000000000000000000000000000000000000000000000000000000000000000000000025f7fd8f50d522b266764cd3b230edaa8cbb9f750000000000000000000000000000000000000000000000000000000000000060000000000000000000000000000000000000000000000000000000000000004e01022c6b39e42a095b7c2174907d5766430ef45c1e6c62d07733e6d5f60eb4b903ab3fc9a50604fa7b85e0ca8cd36386152ab80e0e6244b5345112864e58c947d9de010000000000000000000000000000000000000000000000000000000000",
          "blockHash": "0xbf30cd299557e608ac49960a8c5b6345daeb3596bacdb692311aa7a27b721385",
          "blockNumber": "0x1c36cbf",
          "transactionHash": "0xe31d94b7abdae16292a450d8a0b0584f870f3f6274b71219d28f07183dfdc8f2",
          "transactionIndex": "0x1c",
          "logIndex": "0x59",
          "removed": false
        }
      ],
      "logsBloom": "0x00000000000000000000000000000000000000000000000000000000000000000000000000000000000000000000000000000000000000000000000000000000000000000020000000000000000000000020000000020000000000000000000000000000000000000000000000000000000000040000000000000000000000000000000000000000000000000000004000000000000000000000000000000000000000000000000000008000000000000000000000000000000000000000020080000000000000000000000000000000000000000000000200000000000000000000000000000000002000000100000000000010000000000000000000000000",
      "type": "0x2",
      "transactionHash": "0xe31d94b7abdae16292a450d8a0b0584f870f3f6274b71219d28f07183dfdc8f2",
      "transactionIndex": "0x1c",
      "blockHash": "0xbf30cd299557e608ac49960a8c5b6345daeb3596bacdb692311aa7a27b721385",
      "blockNumber": "0x1c36cbf",
      "gasUsed": "0x20d09",
      "effectiveGasPrice": "0xf4275",
      "from": "0x25f7fd8f50d522b266764cd3b230edaa8cbb9f75",
      "to": "0xe6ec42a064d2efdb19b5aabd6c40bbe4dd1c2970",
      "contractAddress": null,
      "l1BaseFeeScalar": "0x44d",
      "l1BlobBaseFee": "0x5",
      "l1BlobBaseFeeScalar": "0xa118b",
      "l1Fee": "0xf99d52",
      "l1GasPrice": "0x614c89",
      "l1GasUsed": "0x91a"
    }
  ],
  "libraries": [],
  "pending": [],
  "returns": {},
  "timestamp": 1754937439,
  "chain": 84532,
  "commit": "ebb9ee0"
}