{
  "transactions": [
    {
      "hash": "0xa58bb1ed8b7ac8cf0842ae4eb00ecfe647a4a1299e0e048d5fe3b66c894fb257",
      "transactionType": "CALL",
      "contractName": null,
      "contractAddress": "0x62c1332822983b8412a6ffda0fd77cd7d5733ee9",
      "function": "approve(address,uint256)",
      "arguments": [
        "0xe6EC42a064d2eFdb19B5AAbD6c40BbE4dd1C2970",
        "1000000000"
      ],
      "transaction": {
        "from": "0x25f7fd8f50d522b266764cd3b230edaa8cbb9f75",
        "to": "0x62c1332822983b8412a6ffda0fd77cd7d5733ee9",
        "gas": "0xf960",
        "value": "0x0",
        "input": "0x095ea7b3000000000000000000000000e6ec42a064d2efdb19b5aabd6c40bbe4dd1c2970000000000000000000000000000000000000000000000000000000003b9aca00",
        "nonce": "0x1f3",
        "chainId": "0x14a34"
      },
      "additionalContracts": [],
      "isFixedGasLimit": false
    },
    {
      "hash": "0x3064845b1778bc8858b0e19ff0201dc26a4bb4576376c84e74148a77a40d33c1",
      "transactionType": "CALL",
      "contractName": null,
      "contractAddress": "0xe6ec42a064d2efdb19b5aabd6c40bbe4dd1c2970",
      "function": "bridgeToken((address,bytes32,bytes32,uint64),(bytes32,bytes[],bytes)[])",
      "arguments": [
        "(0x62C1332822983B8412A6Ffda0fd77cd7d5733Ee9, 0xbf42698ec2c4668fc2f95e3e032e3ffb4764e9879a76071ba4f5084ab661a76c, 0x4ff5c7f38d663901170d191dd4629d560f6a30eeb826f6d93d29c0d7cc3df992, 1)",
        "[]"
      ],
      "transaction": {
        "from": "0x25f7fd8f50d522b266764cd3b230edaa8cbb9f75",
        "to": "0xe6ec42a064d2efdb19b5aabd6c40bbe4dd1c2970",
        "gas": "0x40059",
        "value": "0x0",
        "input": "0x6736eb1700000000000000000000000062c1332822983b8412a6ffda0fd77cd7d5733ee9bf42698ec2c4668fc2f95e3e032e3ffb4764e9879a76071ba4f5084ab661a76c4ff5c7f38d663901170d191dd4629d560f6a30eeb826f6d93d29c0d7cc3df992000000000000000000000000000000000000000000000000000000000000000100000000000000000000000000000000000000000000000000000000000000a00000000000000000000000000000000000000000000000000000000000000000",
        "nonce": "0x1f4",
        "chainId": "0x14a34"
      },
      "additionalContracts": [],
      "isFixedGasLimit": false
    }
  ],
  "receipts": [
    {
      "status": "0x1",
      "cumulativeGasUsed": "0x13a2c4",
      "logs": [
        {
          "address": "0x62c1332822983b8412a6ffda0fd77cd7d5733ee9",
          "topics": [
            "0x8c5be1e5ebec7d5bd14f71427d1e84f3dd0314c0f7b2291e5b200ac8c7c3b925",
            "0x00000000000000000000000025f7fd8f50d522b266764cd3b230edaa8cbb9f75",
            "0x000000000000000000000000e6ec42a064d2efdb19b5aabd6c40bbe4dd1c2970"
          ],
          "data": "0x000000000000000000000000000000000000000000000000000000003b9aca00",
          "blockHash": "0x9a2cd6cdb35410475af165e43e6d95d9e02f94cfdaac6ce56fbba63a723b92ad",
          "blockNumber": "0x1c36e36",
          "transactionHash": "0xa58bb1ed8b7ac8cf0842ae4eb00ecfe647a4a1299e0e048d5fe3b66c894fb257",
          "transactionIndex": "0xd",
          "logIndex": "0x2d",
          "removed": false
        }
      ],
      "logsBloom": "0x00000000000000000000000000100000000000400000000000000000000000000000000000000000400000000000000000000000000000000000000000200000000000000000000000000000000000000000000200000000000000000000000000000000000000000000000000000040000000000000000000000000000000000000000000000000000000000000000000000000000000000000000000000000020000000000000000000000000000100000000000000000000000000000040000000000000000000000000000000000000020000000000000000000000000000010000000000000000000000000000400000000000000000000000000000000",
      "type": "0x2",
      "transactionHash": "0xa58bb1ed8b7ac8cf0842ae4eb00ecfe647a4a1299e0e048d5fe3b66c894fb257",
      "transactionIndex": "0xd",
      "blockHash": "0x9a2cd6cdb35410475af165e43e6d95d9e02f94cfdaac6ce56fbba63a723b92ad",
      "blockNumber": "0x1c36e36",
      "gasUsed": "0xb48c",
      "effectiveGasPrice": "0xf4274",
      "from": "0x25f7fd8f50d522b266764cd3b230edaa8cbb9f75",
      "to": "0x62c1332822983b8412a6ffda0fd77cd7d5733ee9",
      "contractAddress": null,
      "l1BaseFeeScalar": "0x44d",
      "l1BlobBaseFee": "0x4",
      "l1BlobBaseFeeScalar": "0xa118b",
      "l1Fee": "0xe9fb12",
      "l1GasPrice": "0x84d211",
      "l1GasUsed": "0x640"
    },
    {
      "status": "0x1",
      "cumulativeGasUsed": "0x165f2d",
      "logs": [
        {
          "address": "0x62c1332822983b8412a6ffda0fd77cd7d5733ee9",
          "topics": [
            "0x8c5be1e5ebec7d5bd14f71427d1e84f3dd0314c0f7b2291e5b200ac8c7c3b925",
            "0x00000000000000000000000025f7fd8f50d522b266764cd3b230edaa8cbb9f75",
            "0x000000000000000000000000e6ec42a064d2efdb19b5aabd6c40bbe4dd1c2970"
          ],
          "data": "0x0000000000000000000000000000000000000000000000000000000000000000",
          "blockHash": "0x9a2cd6cdb35410475af165e43e6d95d9e02f94cfdaac6ce56fbba63a723b92ad",
          "blockNumber": "0x1c36e36",
          "transactionHash": "0x3064845b1778bc8858b0e19ff0201dc26a4bb4576376c84e74148a77a40d33c1",
          "transactionIndex": "0xe",
          "logIndex": "0x2e",
          "removed": false
        },
        {
          "address": "0x62c1332822983b8412a6ffda0fd77cd7d5733ee9",
          "topics": [
            "0xddf252ad1be2c89b69c2b068fc378daa952ba7f163c4a11628f55a4df523b3ef",
            "0x00000000000000000000000025f7fd8f50d522b266764cd3b230edaa8cbb9f75",
            "0x000000000000000000000000e6ec42a064d2efdb19b5aabd6c40bbe4dd1c2970"
          ],
          "data": "0x000000000000000000000000000000000000000000000000000000003b9aca00",
          "blockHash": "0x9a2cd6cdb35410475af165e43e6d95d9e02f94cfdaac6ce56fbba63a723b92ad",
          "blockNumber": "0x1c36e36",
          "transactionHash": "0x3064845b1778bc8858b0e19ff0201dc26a4bb4576376c84e74148a77a40d33c1",
          "transactionIndex": "0xe",
          "logIndex": "0x2f",
          "removed": false
        },
        {
          "address": "0xe6ec42a064d2efdb19b5aabd6c40bbe4dd1c2970",
          "topics": [
            "0xf1109ae3af61805fa998753209b2a90166bfc4b38ad8a6b5a268591ce18f99c0"
          ],
          "data": "0x00000000000000000000000062c1332822983b8412a6ffda0fd77cd7d5733ee9bf42698ec2c4668fc2f95e3e032e3ffb4764e9879a76071ba4f5084ab661a76c4ff5c7f38d663901170d191dd4629d560f6a30eeb826f6d93d29c0d7cc3df992000000000000000000000000000000000000000000000000000000003b9aca00",
          "blockHash": "0x9a2cd6cdb35410475af165e43e6d95d9e02f94cfdaac6ce56fbba63a723b92ad",
          "blockNumber": "0x1c36e36",
          "transactionHash": "0x3064845b1778bc8858b0e19ff0201dc26a4bb4576376c84e74148a77a40d33c1",
          "transactionIndex": "0xe",
          "logIndex": "0x30",
          "removed": false
        },
        {
          "address": "0xe6ec42a064d2efdb19b5aabd6c40bbe4dd1c2970",
          "topics": [
            "0xbaa7ef9db66a2e95a218100288cf439de5fbe1e4ed665cd1a2f01278242c9fc4",
            "0x14a969bebc2132f7ecc4981ad21278bf8813bc7ce8cc794c12dc99b7f508a498",
            "0xbf6a1ca7b89d0bb7af8638b2b43c0fb9cbc1496a9182742de6866087b9e774bb"
          ],
          "data": "0x0000000000000000000000000000000000000000000000000000000000000020000000000000000000000000000000000000000000000000000000000000000100000000000000000000000025f7fd8f50d522b266764cd3b230edaa8cbb9f750000000000000000000000000000000000000000000000000000000000000060000000000000000000000000000000000000000000000000000000000000004e0102bf42698ec2c4668fc2f95e3e032e3ffb4764e9879a76071ba4f5084ab661a76c4ff5c7f38d663901170d191dd4629d560f6a30eeb826f6d93d29c0d7cc3df992010000000000000000000000000000000000000000000000000000000000",
          "blockHash": "0x9a2cd6cdb35410475af165e43e6d95d9e02f94cfdaac6ce56fbba63a723b92ad",
          "blockNumber": "0x1c36e36",
          "transactionHash": "0x3064845b1778bc8858b0e19ff0201dc26a4bb4576376c84e74148a77a40d33c1",
          "transactionIndex": "0xe",
          "logIndex": "0x31",
          "removed": false
        }
      ],
      "logsBloom": "0x00000000000000000000000101100000000000400000000000000000000000000000000000000000400000000000000000000000000000000000001000200000000000000020000000000008000000000020000200020000000000000000000000000000000000000000000200000040000000000000000000000010000000000000000004000000000000000000004000000000000000000000000000000000020000000000000000000000000100100000000000000000000000000000060080000002000000000000000000000000000020000000000200000000000000000010000000000000002000000000000400000010000000000000000000000000",
      "type": "0x2",
      "transactionHash": "0x3064845b1778bc8858b0e19ff0201dc26a4bb4576376c84e74148a77a40d33c1",
      "transactionIndex": "0xe",
      "blockHash": "0x9a2cd6cdb35410475af165e43e6d95d9e02f94cfdaac6ce56fbba63a723b92ad",
      "blockNumber": "0x1c36e36",
      "gasUsed": "0x2bc69",
      "effectiveGasPrice": "0xf4274",
      "from": "0x25f7fd8f50d522b266764cd3b230edaa8cbb9f75",
      "to": "0xe6ec42a064d2efdb19b5aabd6c40bbe4dd1c2970",
      "contractAddress": null,
      "l1BaseFeeScalar": "0x44d",
      "l1BlobBaseFee": "0x4",
      "l1BlobBaseFeeScalar": "0xa118b",
      "l1Fee": "0x16c39d4",
      "l1GasPrice": "0x84d211",
      "l1GasUsed": "0x9ba"
    }
  ],
  "libraries": [],
  "pending": [],
  "returns": {},
  "timestamp": 1754938188,
  "chain": 84532,
  "commit": "ebb9ee0"
}